:020000040800F2
:10000000A00A00208901000819160008211500081F
:100010001516000881110008032C000800000000DC
:10002000000000000000000000000000391F000870
:100030008511000800000000251D00082D21000882
:10004000A3010008A3010008A3010008A301000800
:10005000A3010008A3010008A3010008A3010008F0
:10006000A3010008A3010008A3010008A3010008E0
:10007000A3010008A3010008A3010008A3010008D0
:10008000A3010008A3010008A3010008A3010008C0
:10009000A3010008A3010008A3010008A3010008B0
:1000A000A3010008A3010008A3010008A3010008A0
:1000B000A301000891210008A3010008A301000882
:1000C000A3010008A3010008A3010008A301000880
:1000D000A301000839250008A3010008C52700086E
:1000E000A3010008A3010008A301000800F002F822
:1000F00000F03AF80AA090E8000C82448344AAF188
:100100000107DA4501D100F02FF8AFF2090EBAE885
:100110000F0013F0010F18BFFB1A43F0010318473B
:10012000745E0000945E0000103A24BF78C878C165
:10013000FAD8520724BF30C830C144BF04680C60ED
:10014000704700000023002400250026103A28BF35
:1001500078C1FBD8520728BF30C148BF0B60704739
:100160001FB51FBD10B510BD00F036F81146FFF7E2
:10017000F7FF02F067FD00F054F803B4FFF7F2FF59
:1001800003BC00F057F800000948804709480047C1
:10019000FEE7FEE7FEE7FEE7FEE7FEE7FEE7FEE737
:1001A000FEE7FEE704480549054A064B7047000094
:1001B00031210008ED000008A0040020A00A002062
:1001C000A0060020A006002070477047704700007E
:1001D00000487047400400207546FFF7F9FFAE461F
:1001E00005006946534620F00700854618B020B543
:1001F000FFF7D8FFBDE820404FF000064FF00007A2
:100200004FF000084FF0000B21F00701AC46ACE8BE
:10021000C009ACE8C009ACE8C009ACE8C0098D462B
:10022000704710B50446AFF300802046BDE810408B
:10023000FFF7A3BF01491820ABBEFEE7260002006E
:10024000704721B1826842F00102826003E0826857
:1002500022F0010282607047014600208A6802F0A5
:1002600004020AB1012000E0002070470146C86C7A
:1002700080B270470246002013680B400BB101208A
:1002800000E000207047014600208A6802F0080262
:100290000AB1012000E000207047000030B502469E
:1002A0000020002350680F4C20400D790C6844EA70
:1002B00005242043506090680B4C2040D1E9025443
:1002C0002C434D7944EA450420439060D06A20F4E1
:1002D00070000C7C641EE4B2234340EA0350D062F9
:1002E00030BD0000FFFEF0FFFDF7F1FFF0B5044662
:1002F0000D4600200021092D11DDE068A5F10A0658
:1003000006EB4607072606FA07F18843A5F10A0619
:1003100006EB460603FA06F10843E0600CE02069AC
:1003200005EB4507072606FA07F1884305EB450666
:1003300003FA06F108432061072A0FDA606B561EA4
:1003400006EB86071F2606FA07F18843561E06EBC2
:10035000860605FA06F10843606322E00D2A0FDAEB
:10036000206BD61F06EB86071F2606FA07F1884387
:10037000D61F06EB860605FA06F10843206310E057
:10038000E06AA2F10D0606EB86071F2606FA07F1C2
:100390008843A2F10D0606EB860605FA06F108432E
:1003A000E062F0BD816841F008018160704721B1D1
:1003B000826842F4A002826003E0826822F4A00214
:1003C00082607047816841F00401816070470000DD
:1003D00000B587B00121480201F034FD012104205D
:1003E00001F030FD4FF4004001F010FD00208DF8C9
:1003F0001B001020ADF8180003208DF81A0006A984
:10040000194800F089FF0523012204211748FFF74E
:100410006DFF002004904FF46020039000200190B5
:1004200001208DF8140000208DF809008DF80800D7
:1004300001A90E48FFF732FF01210C48FFF701FF29
:100440000A48FFF7AFFF00BF0848FFF71CFF01286D
:10045000FAD00648FFF7B6FF00BF0448FFF7FCFEDE
:100460000128FAD007B000BD000801400024014077
:1004700070B50425284801F0A1FD284801F0BCFD15
:10048000502000F080FE264801F058FD35E0254858
:1004900000880D2800D035E000240FE021480088B6
:1004A0000D2800D00CE0204603F05AF9064601F072
:1004B00063FD1D48008800F066FE641C2D2CEDDDF8
:1004C00000BF2D240FE0174800880D2800D00CE055
:1004D000204603F045F9064601F04EFD124800881B
:1004E00000F051FE641E002CEDDC00BF0D480088BA
:1004F0000D2800D006E0681E85B21DB109480088AD
:100500000D28C4D000BF074800880D2802D1022062
:100510000449088070BD00000000A0410000344282
:100520000000B4421A0000201E00002010B51C4834
:100530000088D0B91B4801F05FFD1B4801F0FEFCAC
:100540001A48008800F01FFE164801F037FD1648D3
:1005500001F012FD1548008800F015FE0C2014492A
:10056000088001200E49088019E00E4801F026FDA0
:100570000D4801F001FD0D48008800F004FE094817
:1005800001F03AFD084801F0D9FC0848008800F065
:10059000FAFD0C200649088000200149088010BDA2
:1005A0001800002000000C4200000C431C0000203A
:1005B0001A00002010B51D480088D8B91C4801F069
:1005C000BDFC1C4801F018FD1B48008800F0DBFD55
:1005D000174801F0D1FC174801F0F0FC16480088DC
:1005E000503000F0D0FD02201449088001200F494E
:1005F00008801AE00E4801F0BFFC0E4801F0DEFC56
:100600000D48008800F0BFFD094801F097FC09483B
:1006100001F0F2FC08480088503000F0B4FD0220E0
:100620000649088000200149088010BD16000020FE
:1006300000000C4300000C421C0000201A000020A7
:1006400010B55EE002203149088008460088801C11
:10065000088040E02E4801F08FFC2E4801F0AEFCEF
:100660002D48008800F08FFD2C480088062800D017
:100670003BE0274801F062FC264801F0BDFC26481B
:10068000008800F080FD25480088062800D02CE076
:10069000234801F071FC224801F090FC1E480088BC
:1006A00000F071FD1D480088062800D01DE01C48A0
:1006B00001F044FC1A4801F09FFC1748008800F044
:1006C00062FD16480088062800D00EE00F4800881A
:1006D000401E0E4908800D48008810B91148008856
:1006E00018B10E4800880628B4D000BF0D48008815
:1006F000012806D009480088062802D102200749AF
:1007000008800648008806289CD010BD14000020F0
:1007100000003442000007431C0000201A000020A3
:100720000000B442260000202DE9F04101260324F8
:10073000A7E0574801F002FC564801F01DFC3C20A0
:1007400000F021FD544801F057FC5A250EE05348B3
:1007500000880F2800D00BE0284603F001F8074678
:1007600001F02CFC062000F00EFD6D1CB42DEEDB1C
:1007700000BF14E0B4250EE0484800880F2800D0E0
:100780000BE0284602F0ECFF074601F017FC0F20B3
:1007900000F0F9FC6D1E962DEEDC00BF641E1CB14E
:1007A0003E4800880F28E5D03C4800880F2800D03C
:1007B0006AE0642000F0E7FC354801F0BFFB3448F4
:1007C00001F0DAFB354800880F2800D05CE05020AB
:1007D00000F0D9FC2E4801F0F1FB2D4801F00CFC93
:1007E000642000F0D0FC2D4800880F2800D04BE09A
:1007F0000324274801F0C0FB264801F09FFB27484F
:1008000000880F2800D03FE03C2000F0BCFC2248CC
:1008100001F0D4FB5A250EE0204800880F2800D0B4
:100820000BE0284602F09CFF074601F0E5FB06209E
:1008300000F0A9FC6D1CB42DEEDB00BF14E0B42564
:100840000EE0164800880F2800D00BE0284602F082
:1008500087FF074601F0D0FB0F2000F094FC6D1ECF
:10086000962DEEDC00BF641E1CB10C4800880F28DA
:10087000E5D00A4800880F2802D1022007490880E5
:100880000026002E7FF455AF00BFBDE8F0810000C8
:100890000000B4420000A0410000DC421A00002029
:1008A00010B55EE002203149088008460088801CAF
:1008B000088040E02E4801F041FB2E4801F09CFBEF
:1008C0002D48008800F05FFC2C480088072800D0E5
:1008D0003BE0274801F050FB264801F06FFB26481B
:1008E000008800F050FC25480088072800D02CE044
:1008F000234801F023FB224801F07EFB1E480088BC
:1009000000F041FC1D480088072800D01DE01C486D
:1009100001F032FB1A4801F051FB1748008800F043
:1009200032FC16480088072800D00EE00F480088E7
:10093000401E0E4908800D48008810B911480088F3
:1009400018B10E4800880728B4D000BF0D480088B1
:10095000012806D009480088072802D1022007494B
:1009600008800648008807289CD010BD140000208D
:1009700000003442000007431C0000201A00002041
:100980000000B4422600002070B503255BE01E2461
:1009900022E0204602F0FCFE064601F0CFFA204697
:1009A00002F0F6FE064601F0E7FA204602F0F0FEFD
:1009B000064601F003FB204602F0EAFE064601F07F
:1009C0001BFB3C48008800F0DEFB3B480088082801
:1009D00000D003E0601CC4B2962CDADB00BF3648BE
:1009E0000088082800D033E0962422E0204602F058
:1009F000CFFE064601F0A2FA204602F0C9FE0646E6
:100A000001F0BAFA204602F0C3FE064601F0D6FA1B
:100A1000204602F0BDFE064601F0EEFA25480088A9
:100A200000F0B1FB24480088082800D003E0601ED5
:100A3000C4B21E2CDADC00BF1F480088082800D092
:100A400006E0681E85B21DB11B48008808289ED0AC
:100A500000BF1E2422E0204602F09AFE064601F066
:100A60006DFA204602F094FE064601F085FA204613
:100A700002F08EFE064601F0A1FA204602F088FE42
:100A8000064601F0B9FA0B48008800F07CFB0A48E2
:100A90000088082800D003E0601CC4B25A2CDADBBE
:100AA00000BF05480088082802D1022002490880BA
:100AB00070BD00001E0000201A00002070B53C2010
:100AC00000F061FB4EE02C48007828B32B480478F6
:100AD00017E02A480470204602F05AFE054602F04C
:100AE00093F82748008800F04EFB2648007801283C
:100AF00000D008E024480088092800D003E0601CEA
:100B0000C4B2962CE5DB00BF00201B4908701E48CC
:100B10000088092826D029E01848047817E01748EB
:100B20000470204602F034FE054602F06DF81448C9
:100B3000008800F028FB13480078012800D008E066
:100B400011480088092800D003E0601EC4B21E2CA2
:100B5000E5DC00BF0120084908700B48008809281F
:100B600000D003E0074800780028ACD100BF3C204B
:100B700000F009FB70BD00002400002023000020CD
:100B80001E000020220000201A00002010B597E06F
:100B900002204E4908807CE04D4801F0EDF94C48B8
:100BA00001F00CFA4B48008800F0EDFA4A48008842
:100BB000042800D078E0494801F0C0F9474801F026
:100BC0001BFA4448008800F0DEFA434800880428F5
:100BD00000D069E0424801F0CFF9414801F0EEF958
:100BE0003C48008800F0CFFA3B480088042800D039
:100BF0005AE03B4801F0A2F9394801F0FDF93548C7
:100C0000008800F0C0FA34480088042800D04BE087
:100C10002F4801F093F92E4801F0EEF92D48008895
:100C200000F0B1FA2C480088042800D03CE02B48A2
:100C300001F0A2F9294801F0C1F92648008800F026
:100C4000A2FA25480088042800D02DE0244801F0AD
:100C500075F9234801F0D0F91E48008800F093FA96
:100C60001D480088042800D01EE01D4801F084F9CA
:100C70001B4801F0A3F91748008800F084FA1648D1
:100C80000088042800D00FE010480088401E0F495B
:100C900008800E48008810B91248008820B10E481C
:100CA000008804283FF478AF00BF0E480088012870
:100CB00006D009480088042802D10220064908808D
:100CC0000548008804283FF463AF10BD14000020DD
:100CD000000034421C0000201A00002000000743DE
:100CE0000000B4422600002010B597E002204E49D3
:100CF00008807CE04D4801F03FF94C4801F05EF976
:100D00004B48008800F03FFA4A480088052800D088
:100D100078E0494801F012F9474801F06DF944487C
:100D2000008800F030FA43480088052800D069E0C8
:100D3000424801F021F9414801F040F93C4800885F
:100D400000F021FA3B480088052800D05AE03B48D3
:100D500001F0F4F8394801F04FF93548008800F007
:100D600012FA34480088052800D04BE02F4801F0E3
:100D7000E5F82E4801F040F92D48008800F003FA0C
:100D80002C480088052800D03CE02B4801F0F4F8FE
:100D9000294801F013F92648008800F0F4F92548A5
:100DA0000088052800D02DE0244801F0C7F823482A
:100DB00001F022F91E48008800F0E5F91D4800887E
:100DC000052800D01EE01D4801F0D6F81B4801F0B0
:100DD000F5F81748008800F0D6F91648008805286D
:100DE00000D00FE010480088401E0F4908800E48D0
:100DF000008810B91248008820B10E4800880528E4
:100E00003FF478AF00BF0E480088012806D009489B
:100E10000088052802D1022006490880054800887C
:100E200005283FF463AF10BD140000200000074305
:100E30001C0000201A000020000034420000B442D0
:100E40002600002010B5094801F078F8074801F0A5
:100E500093F8502000F097F9044801F0AFF80348E8
:100E600001F0CAF809200249088010BD0000A04125
:100E70001A00002010B5094801F060F8074801F099
:100E80007BF8502000F07FF9054801F097F80448FE
:100E900001F0B2F809200349088010BD0000A0410C
:100EA000000020431A00002010B5094801F046F860
:100EB000074801F061F8502000F065F9054801F09D
:100EC0007DF8044801F098F809200349088010BD16
:100ED0000000B4420000A0411A00002070B53C4858
:100EE00001F06CF83A4801F087F8502000F04BF917
:100EF0005A2414E0204602F033FC054601F01EF8A7
:100F0000204602F02DFC054601F036F831480088F5
:100F10000E2800D005E00F2000F035F9641E0A2CE1
:100F2000E8DC00BF0A2414E0204602F019FC054664
:100F300001F004F8204602F013FC054601F01CF80D
:100F4000244800880E2800D005E00F2000F01BF98F
:100F5000641C5A2CE8DB00BF5A2414E0204602F03F
:100F6000FFFB054601F02AF8204602F0F9FB054692
:100F700001F042F8174800880E2800D005E00F2045
:100F800000F001F9641CAA2CE8DB00BFAA2414E0DD
:100F9000204602F0E5FB054601F010F8204602F07D
:100FA000DFFB054601F028F80A4800880E2800D02B
:100FB00005E00F2000F0E7F8641E5A2CE8DC00BFC3
:100FC000044800880E2802D10F200249088070BD15
:100FD0000000B4421A00002010B5094800F0AEFF2E
:100FE000074800F0C9FF502000F0CDF8044800F099
:100FF000E5FF034801F000F809200249088010BD10
:101000000000B4421A00002010B5094800F0D6FFD5
:10101000074800F0F1FF502000F0B5F8044800F058
:101020008DFF034800F0A8FF09200249088010BD89
:101030000000B4421A00002000B587B0012104204E
:1010400000F000FF0121880300F0FCFE01210820D0
:1010500000F0F8FE0121880400F0E4FE18208DF86D
:101060001B004FF40070ADF8180003208DF81A0033
:1010700006A93F4800F050F948208DF81B004FF4B6
:101080008060ADF8180003208DF81A0006A93848D2
:1010900000F042F918208DF81B004FF48060ADF885
:1010A000180003208DF81A0006A9324800F034F920
:1010B00048208DF81B004FF40060ADF818000320A5
:1010C0008DF81A0006A92B4800F026F94FF41650A7
:1010D00002900020ADF814000C20ADF812000020A2
:1010E000ADF81000ADF80E00ADF80C0002A92248D2
:1010F00001F016FD4FF4E130029002A91F4801F003
:101100000FFD012240F225511B4801F0E4FC0122B1
:1011100040F22551194801F0DEFC4FF4A06000F0C8
:10112000B5FA25208DF8040001208DF807008DF810
:1011300005008DF8060001A800F070FA27208DF850
:10114000040001208DF8070002208DF80500012021
:101150008DF8060001A800F061FA0121064801F0AF
:1011600084FC0121054801F080FC07B000BD0000AF
:1011700000080140000C01400038014000480040D8
:1011800000BFFEE7704700B5034603E04FF47A70F6
:1011900000F005F8181EA3F10103F7D100BD00EB24
:1011A000C001C9004FF0E022516100219161052189
:1011B000116100BF4FF0E021096901F4803100297D
:1011C000F8D004214FF0E0221161704708B5434880
:1011D0000088072852D2DFE800F0040F1A25303BC0
:1011E000460000F05DFA3E48402380220021009036
:1011F000084600F0ADFB41E000F052FA39484023C8
:10120000802200210090084600F0A2FB36E000F0AA
:1012100047FA35484023802200210090084600F01C
:1012200097FB2BE000F03CFA30484023802200215D
:101230000090084600F08CFB20E000F031FA2C48CA
:101240004023802200210090084600F081FB15E039
:1012500000F026FA2748402380220021009008460B
:1012600000F076FB0AE000F01BFA234840238022BE
:1012700000210090084600F06BFB00BF00BF1F4834
:10128000007838B306231EA20021084600F004FCB3
:101290001D4800886E2806DB06231CA2002124209E
:1012A00000F0FAFB16E018480088642809DB0620E5
:1012B00003230090144802880021242000F0C6FB7C
:1012C00008E00620022300900F4802880021242015
:1012D00000F0BCFB00F0F8FB08BD0000200000207F
:1012E0009453000894570008944B0008944F00084A
:1012F000945B000894470008944300083F000020D6
:10130000506F7765723A00003C00002043686172BC
:1013100067696E67000000002DE9F0410246002574
:101320000026002000230024002791F803C00CF0C1
:101330000F0591F803C00CF0100CBCF1000F03D0A6
:1013400091F802C04CEA050591F800C0BCF1000F0D
:1013500031D0146800202BE04FF0010C0CFA00F3A0
:10136000B1F800C00CEA03069E4220D183004FF082
:101370000F0C0CFA03F7BC4305FA03FC4CEA040417
:1013800091F803C0BCF1280F06D14FF0010C0CFA04
:1013900000FCC2F814C00AE091F803C0BCF1480F89
:1013A00005D14FF0010C0CFA00FCC2F810C0401C33
:1013B0000828D1D31460B1F800C0BCF1FF0F34DDB0
:1013C000546800202EE000F1080C4FF0010808FAE4
:1013D0000CF3B1F800C00CEA03069E4221D1830051
:1013E0004FF00F0C0CFA03F7BC4305FA03FC4CEA70
:1013F000040491F803C0BCF1280F05D100F1080CDA
:1014000008FA0CF8C2F8148091F803C0BCF1480F38
:1014100007D100F1080C4FF0010808FA0CF8C2F8E7
:101420001080401C0828CED35460BDE8F0810AB17A
:10143000016100E0416170472DE9FF5F00F05EF857
:10144000019001F04DFE80464FF066320F4B01F0E7
:101450005BFE064600220E4B01F0EAFC00220D4B1B
:10146000CDE9020101F050FE044600220A4B01F0D2
:1014700049FF824601F002FC0849086008460068FE
:1014800002F04EF980B204B0BDE8F09F66662A40D3
:101490000000B0400000594000C0724034000020FD
:1014A00010B5FEF795FF10BD10B510480078401C30
:1014B000C0B20E49087064280ADCFFF7BDFF0C4972
:1014C00008800C480088098808440A4908800BE015
:1014D00008480088642190FBF1F00749088000204B
:1014E000044908800149087010BD00003E0000203A
:1014F000380000203A0000203C00002010B50121F7
:101500000648FEF754FF00BF02210448FEF7B2FE72
:101510000028F9D00148FEF7A9FE10BD00240140C3
:1015200000BFFEE710B53648008801280BD13548CA
:10153000008840B944F6206000F0B6FB44F6206015
:1015400000F0BCFB5AE02E48008801284DD12D4800
:101550000088012849D12C480088012816D12B4841
:1015600000886430294908800846008800F09CFB08
:101570002648008800F0A2FB2448008844F6206139
:1015800088423BD102202049088037E01E4800886D
:10159000022813D11D48008864381C490880084679
:1015A000008800F081FB1948008800F087FB17488D
:1015B000008818BB0320144908801FE012480088E7
:1015C00003281BD11248008800F57A701049088062
:1015D0000846008844F6206188420FD101200A495C
:1015E000088000200A49088008E00548008828B9DA
:1015F000002000F059FB002000F060FB10BD00004F
:1016000030000020320000202C0000202A000020A2
:101610002E00002000BFFEE77047000070B50021DB
:1016200000230F22C47804B3154C246804F4E0644A
:10163000C4F5E064210AC1F10403CA40447804FA05
:1016400003F184781440214309010E4C0678A1551A
:10165000047804F01F050124AC4005786D11AD003D
:1016600005F1E025C5F8004109E0047804F01F0504
:101670000124AC40044D0678761145F8264070BD33
:101680000CED00E000E400E080E100E002490143ED
:10169000024A1160704700000000FA050CED00E0FE
:1016A00000200CE0002106E00022064B03EBC013F3
:1016B0005A544A1CD1B28029F6DB421CD0B2082809
:1016C000F0DB7047400000202DE9F04304460D4652
:1016D00016461F46284638E0224631E0002A2DDB18
:1016E0007F2A2BDC002829DB3F2827DC4FEAE07C1F
:1016F00000EB5C7C4FEAEC0CDFF8588008EBCC1C6C
:101700001CF802C003464FEAE07800EB58784FEA35
:10171000E808A0EBC8094FF0010808FA09F82CEA1C
:10172000080C01464FEAE07800EB58784FEAE808E9
:10173000DFF8209009EBC81808F802C0511C0AB263
:10174000A1199142CADC411C08B2E9198142C3DCEB
:10175000BDE8F0834000002038B5002406E00025F5
:1017600000E06D1CB5F57A7FFBD3641CB4F57A7F7D
:10177000F5D30121082000F065FB14208DF803004B
:1017800003208DF802004FF48070ADF80000694628
:101790000848FFF7C1FD4FF40070ADF8000069463E
:1017A0000448FFF7B9FD012000F0A2F9012000F084
:1017B000ABF938BD000C014070B50546002411E0BE
:1017C00080212141294009B1012100E00021084682
:1017D00000F09AF9012000F08BF9002000F088F960
:1017E000601CC4B2082CEBDB012000F081F9002062
:1017F00000F07EF970BD10B5012000F085F90120E0
:1018000000F076F9002000F07FF9002000F070F978
:1018100010BD10B5002000F077F9012000F068F944
:10182000012000F071F910BD10B5FFF795FFAE2053
:1018300000F076F9D52000F073F9802000F070F9FF
:10184000A82000F06DF93F2000F06AF9D32000F0E5
:1018500067F9002000F064F9402000F061F9A12050
:1018600000F05EF9C82000F05BF9DA2000F058F9CA
:10187000122000F055F9812000F052F9CF2000F03D
:101880004FF9D92000F04CF9F12000F049F9DB20A4
:1018900000F046F9302000F043F9A42000F040F9B0
:1018A000A62000F03DF98D2000F03AF9142000F058
:1018B00037F9AF2000F034F9FFF7F2FE00F004F939
:1018C00010BD10B50246012000E050430B1EA1F1EF
:1018D0000101FAD110BD70B505460C46A01CC4B27A
:1018E00045F0B00000F01CF9102141EA141000F09E
:1018F00017F904F00F0000F013F970BDF8B50646B3
:101900000F4614461D46082D0CD1A4F120000E49A7
:1019100001EB00101023082239460090304600F0F9
:1019200017F80FE0062D0DD1A4F1200000EB4000C8
:10193000064901EB40000823062239460090304654
:1019400000F006F8F8BD00004E3A00083E400008DE
:101950002DE9FF4F80460E469146DDF834B0002554
:1019600000244A4631464046039BFFF7ADFE00BFC8
:101970005EE0002558E008EB0500002852DB08EB8C
:1019800005007F284EDC3046F11706EB5171C91077
:101990000FB2F11706EB5171C910A6EBC10A002E68
:1019A00005DA781E07B20AF108000FFA80FA381932
:1019B000002817DB3819072814DC3819224901EBF5
:1019C000C01008EB0501405C04FB09511BF8011035
:1019D00001FA0AF1084339191B4A02EBC11108EB5D
:1019E000050288543819401C00281BDB3819401C9C
:1019F000072817DC3819401C134901EBC01008EB0D
:101A00000501405C04FB09511BF80110CAF10802F2
:101A1000114108433919491C0B4A02EBC11108EB6B
:101A200005028854681CC5B24D45A4DB601CC4B2D5
:101A30000399481EC11700EB5171012202EBE1012D
:101A4000A14296DCBDE8FF8F400000202DE9F04761
:101A50000646894617461D46DDF82080002417E01B
:101A6000281B411E0A20FFF72CFFB7FBF0F00A21CC
:101A7000B0FBF1F201FB120000F1300A04FB086137
:101A800008B2434652464946FFF738FF601CC4B2CD
:101A9000AC42E5DBBDE8F0872DE9F041064688461B
:101AA00015461F46002409E02A5D04FB076108B2C1
:101AB0003B464146FFF722FF601CC4B2285D002868
:101AC000F2D1BDE8F081000010B500240BE0002148
:101AD0002046FFF700FF054901EBC410802100F00C
:101AE0002FF8601CC4B2082CF1DB10BD40000020B0
:101AF00010B5044622464FF480710248FFF797FC68
:101B000010BD0000000C014010B5044622464FF401
:101B100000710248FFF78BFC10BD0000000C014073
:101B200010B50446FFF767FE7820FFF745FE00205A
:101B3000FFF742FE2046FFF73FFEFFF76AFE10BDAB
:101B400070B505460E46FFF756FE7820FFF734FEC7
:101B50004020FFF731FE002404E0285DFFF72CFE53
:101B6000601CC4B2B442F8DBFFF753FE70BD000046
:101B700000B589B00121084600F054F90121022086
:101B800000F050F90121042000F05CF90121082047
:101B900000F058F918208DF823004F20ADF82000F0
:101BA00003208DF8220008A93C48FFF7B5FB182058
:101BB0008DF823000320ADF820008DF8220008A93D
:101BC0003748FFF7A9FB4FF0804000F01CFB354879
:101BD00000F019FB0020ADF81A00ADF8160044F62D
:101BE0001F60ADF818004720ADF8140000208DF8F4
:101BF0001C0005A94FF0804000F04CFC05A92948C5
:101C000000F048FC1D208DF8100001208DF8130015
:101C100000208DF811008DF8120004A8FFF7FEFCDB
:101C2000012211461F4800F0E5FA684600F01EFC4C
:101C30006020ADF800000020ADF808000120ADF8EC
:101C400002000020ADF8060069464FF0804000F029
:101C5000E1FA69464FF0804000F028FB69464FF0FA
:101C6000804000F075FB69464FF0804000F0C0FBFB
:101C700069460C4800F0CEFA69460A4800F068FB55
:101C80006946084800F0B4FB0121880700F095FA86
:101C90000121044800F091FA09B000BD000801409C
:101CA000000C01400004004010B5044621460248E3
:101CB00000F0EAFB10BD00000004004010B504462F
:101CC0002146024800F0E2FB10BD00000004004085
:101CD00010B5044621464FF0804000F0D1FB10BD06
:101CE00010B5044621464FF0804000F0CBFB10BDFC
:101CF00010B5044621464FF0804000F0C5FB10BDF2
:101D000010B5044621464FF0804000F0BFFB10BDE7
:101D100010B504462146024800F0B2FB10BD000099
:101D2000000400407047000010B53748008810B923
:101D3000FFF7A0F867E034480088012802D1FFF7D8
:101D4000B3F860E030480088022802D1FFF744F978
:101D500059E02D480088032802D1FFF773F852E0BC
:101D600029480088042802D1FEF710FF4BE02648DE
:101D70000088052802D1FEF7B7FF44E0224800881A
:101D8000062802D1FEF75CFC3DE01F4800880728CA
:101D900002D1FEF785FD36E01B480088082802D1F5
:101DA000FEF7F2FD2FE018480088092802D1FEF75F
:101DB00085FE28E0144800880A2802D1FEF7FAFBC5
:101DC00021E0114800880B2802D1FEF7AFFB1AE092
:101DD0000D4800880C2802D1FFF716F913E00A48D5
:101DE00000880D2802D1FEF743FB0CE0064800886E
:101DF0000E2802D1FFF772F805E0034800880F288B
:101E000001D1FEF791FC10BD1A0000200146002010
:101E1000034A506820F44040084350607047000077
:101E20000010024029B1064AD2690243044BDA612C
:101E300004E0034AD2698243014BDA617047000033
:101E40000010024029B1064A92690243044B9A618C
:101E500004E0034A92698243014B9A617047000093
:101E60000010024030B500210022002400232D4D37
:101E70006D6805F00C0121B1042905D0082923D192
:101E800005E0294D056022E0274D05601FE0254D46
:101E90006D6805F47012234D6D6805F480340225D9
:101EA00005EB92421CB9214D554305600BE01D4DD9
:101EB0006D6805F400351DB11C4D5543056002E009
:101EC000194D5543056002E0174D056000BF00BF86
:101ED000144D6D6805F0F0010909154D6B5C05683E
:101EE000DD4045600F4D6D6805F4E061090A104D55
:101EF0006B5C4568DD4085600A4D6D6805F4605196
:101F0000C90A0B4D6B5C4568DD40C560054D6D68C9
:101F100005F44041890B074D6B5CC568B5FBF3F5D3
:101F2000056130BD0010024000127A0000093D003A
:101F30000000002010000020704700002DE9F04153
:101F400004460A49204601F029FB8046084901F071
:101F500033FC0746074901F0BFFA064601F0E0FBF3
:101F600085B22846FFF7B4FEBDE8F0810000344397
:101F70000000FA440000FA432DE9F04704460C49FA
:101F8000204601F0E5FC8146094901F007FB804647
:101F9000084901F011FC0746074901F09DFA064681
:101FA00001F0BEFB85B22846FFF79AFEBDE8F08738
:101FB000000034430000FA440000FA432DE9F041E8
:101FC00004460A49204601F0E9FA8046084901F032
:101FD000F3FB0746074901F07FFA064601F0A0FB34
:101FE00085B22846FFF784FEBDE8F0810000344347
:101FF0000000FA440000FA432DE9F04704460C497A
:10200000204601F0A5FC8146094901F0C7FA804647
:10201000084901F0D1FB0746074901F05DFA064681
:1020200001F07EFB85B22846FFF76AFEBDE8F08727
:10203000000034430000FA440000FA4310B5FFF7F3
:1020400097FD10BD10B500F001F810BD0CB50020D3
:10205000019000903348006840F4803031490860B6
:1020600000BF3048006800F4003000900198401C28
:102070000190009818B90198B0F5A06FF1D12948E6
:10208000006800F4003010B10120009001E0002051
:1020900000900098012843D12348006840F01000C8
:1020A000214908600846006820F0030008600846DF
:1020B000006840F0020008601A484068194948600A
:1020C0000846406848600846406840F480604860C0
:1020D0000846406820F47C1048600846406840F498
:1020E000E81048600846006840F08070086000BF53
:1020F0000C48006800F000700028F9D009484068DA
:1021000020F00300074948600846406840F002009C
:10211000486000BF0348406800F00C000828F9D16F
:102120000CBD00000010024000200240704700007B
:1021300010B51348006840F00100114908600846D6
:102140004068104908400E494860084600680E493A
:1021500008400B4908600846006820F480200860A9
:102160000846406820F4FE0048604FF41F00886075
:10217000FFF768FF4FF000600449086010BD0000E1
:10218000001002400000FFF8FFFFF6FE08ED00E03F
:1021900010B50121064800F01CF8012807D1FFF70F
:1021A00083F9FFF7BFF90121014800F003F810BDE2
:1021B00000040040CA430282704721B1028842F005
:1021C0000102028004E002884FF6FE731A4002808A
:1021D000704730B50246002000230024158A05EA26
:1021E0000103958905EA010413B10CB1012000E057
:1021F000002030BD1AB183890B43838102E08389BB
:102200008B438381704701894FF6F8721140018139
:102210007047000070B5002400220023058C4FF6A3
:10222000FE7635400584028C8388048B4FF68F75CB
:102230002C40B51E2C400D882C43751E2A400D895C
:102240002A434D882A43144DA8420BD0134DA8426F
:1022500008D0134DA84205D0124DA84202D0124D0D
:10226000A84213D14FF6F7752A404D892A434FF6FD
:10227000FB752A408D882A434FF6FF652B404FF6A9
:10228000FF552B408D892B43CD892B4383800483BD
:10229000CD888586028470BD002C01400034014049
:1022A00000400140004401400048014070B5002456
:1022B00000220023058C4FF6EF7635400584028C12
:1022C0008388048B48F6FF752C404FF6FF452C4061
:1022D0000D884FF6FF7606EA05252C434FF6DF758D
:1022E0002A400D8906EA05152A434D8806EA051598
:1022F0002A43154DA84202D0144DA8421DD14FF6D5
:102300007F752A404D894FF6FF7606EA05152A4368
:102310004FF6BF752A408D8806EA05152A434FF609
:10232000FF352B404FF2FF752B408D8906EA85055E
:102330002B43CD8906EA85052B4383800483CD8812
:102340000587028470BD0000002C0140003401406C
:1023500070B5002400220023058C4FF6FF6635403F
:102360000584028C8388848B4FF68F752C404FF642
:10237000FC752C400D882C434FF6FF552A400D89E3
:102380004FF6FF7606EA05252A434D8806EA05251D
:102390002A43154DA84202D0144DA8421DD14FF238
:1023A000FF752A404D894FF6FF7606EA05252A4338
:1023B0004FF6FF352A408D8806EA05252A434EF65A
:1023C000FF752B404DF6FF752B408D8906EA0515EC
:1023D0002B43CD8906EA05152B4383808483CD8862
:1023E0008587028470BD0000002C0140003401404C
:1023F00070B5002200230024058C4EF6FF76354090
:102400000584038C8488828B48F6FF752A404FF63A
:10241000FF452A400D884FF6FF7606EA05252A4338
:102420004DF6FF752B400D8906EA05352B434D8887
:1024300006EA05352B430B4DA84202D00A4DA842AF
:1024400008D14BF6FF752C408D894FF6FF7606EAD2
:1024500085152C4384808283CD88A0F84050038466
:1024600070BD0000002C01400034014000210180BB
:1024700041808180C180018141818181C18170471A
:10248000818670470187704781877047A0F84010A8
:1024900070470000002202881D4B98420ED01D4B51
:1024A00098420BD0B0F1804F08D01B4B984205D01A
:1024B0001A4B984202D01A4B984204D14FF68F73B0
:1024C0001A404B881A43174B984207D0164B984234
:1024D00004D04FF6FF431A40CB881A4302808B8802
:1024E00083850B8803850A4B98420BD0094B984291
:1024F00008D00E4B984205D00D4B984202D00D4BA0
:10250000984201D10B7A0386012383827047000031
:10251000002C01400034014000040040000800404D
:10252000000C00400010004000140040004001403A
:10253000004401400048014010B540F22551974841
:1025400000F09FFA01287DD100209549088093482A
:1025500000F052FB292805D10020924908809249B9
:10256000088014E18D4800F047FB302805D1012098
:102570008C4908808C49088009E1884800F03CFBC0
:10258000312806D105208749088002208649088025
:10259000FDE0824800F030FB322806D1012081495D
:1025A0000880032080490880F1E07C4800F024FB8B
:1025B000332806D102207B49088004207A4908800C
:1025C000E5E0764800F018FB342806D10220754972
:1025D0000880052074490880D9E0704800F00CFBA1
:1025E000352806D102206F49088006206E490880F0
:1025F000CDE06A4800F000FB362806D10220694988
:102600000880072068490880C1E0644800F0F4FAB7
:10261000372806D1042063490880082062490880D1
:10262000B5E05E4800F0E8FA382819D15F48008824
:10263000782802D103205B4908805C480088642820
:1026400007DD00E0A8E059480088143857490880A1
:102650009DE0022053490880C8205449088096E034
:102660004E4800F0C9FA392817D15148008804288B
:1026700002D103204B4908804D480088032805DD1E
:102680004B480088401E4A49088080E004204549A4
:10269000088009204649088079E0404800F0ACFAFB
:1026A000402809D14348007880F001004149087072
:1026B00001203C4908806AE0384800F09DFA412832
:1026C00006D10220374908800A20374908805EE099
:1026D000324800F091FA422806D1022031490880A0
:1026E0000B203149088052E02C4800F085FA43283D
:1026F00006D106202B4908800D202B49088046E092
:10270000264800F079FA442803D101202A4908809C
:102710003DE0224800F070FA452803D10020264908
:10272000088034E01D4800F067FA462803D10120F4
:10273000224908802BE0194800F05EFA472803D1AF
:1027400000201E49088022E0144800F055FA48286D
:1027500006D10620134908800E201349088016E090
:102760000E4800F049FA492806D106200D49088094
:102770000F200D4908800AE0084800F03DFA502873
:1027800005D10F48007880F001000D49087040F233
:102790002551024800F05AF910BD000000380140F0
:1027A00026000020200000201A0000201C0000202D
:1027B0001E000020220000203000002032000020F7
:1027C0003F00002010B540F22551964800F059F91D
:1027D00001287DD194490880924800F00DFA2928FB
:1027E00005D10020914908809149088014E18D4865
:1027F00000F002FA302805D101208C4908808C496C
:10280000088009E1874800F0F7F9312806D1052052
:1028100086490880022086490880FDE0814800F052
:10282000EBF9322806D10120804908800320804935
:102830000880F1E07B4800F0DFF9332806D1022060
:102840007A49088004207A490880E5E0754800F05C
:10285000D3F9342806D10220744908800520744930
:102860000880D9E06F4800F0C7F9352806D102206A
:102870006E49088006206E490880CDE0694800F066
:10288000BBF9362806D1022068490880072068492C
:102890000880C1E0634800F0AFF9372806D1042072
:1028A00062490880082062490880B5E05D4800F070
:1028B000A3F9382819D15F480088782802D103206D
:1028C0005A4908805B480088642807DD594800E0C1
:1028D000A7E000881438574908809DE0022053493A
:1028E0000880C8205349088096E04E4800F084F9DB
:1028F000392817D150480088042802D103204B49B9
:1029000008804D480088032805DD4B480088401E9C
:102910004949088080E0042044490880092046494C
:10292000088079E03F4800F067F9402809D1434822
:10293000007880F001004149087001203B4908807F
:102940006AE0384800F058F9412806D1022037499A
:1029500008800A20364908805EE0324800F04CF9D1
:10296000422806D10220314908800B2030490880D6
:1029700052E02C4800F040F9432806D106202B49AC
:1029800008800D202A49088046E0264800F034F9E6
:10299000442803D101202A4908803DE0214800F065
:1029A0002BF9452803D100202549088034E01D4833
:1029B00000F022F9462803D10120224908802BE0AB
:1029C000184800F019F9472803D100201D49088054
:1029D00022E0144800F010F9482806D106201349D7
:1029E00008800E201249088016E00E4800F004F915
:1029F000492806D106200D4908800F200C4908807F
:102A00000AE0084800F0F8F8502805D10E48007890
:102A100080F001000C49087040F22551014800F097
:102A200015F810BD004800402600002020000020BE
:102A30001A0000201C0000201E00002022000020A0
:102A400030000020320000203F00002010B500229E
:102A5000002340F66A14A14200D100BF0A120124EB
:102A60009440A3B2DC43048010BD21B1828942F4BA
:102A70000052828104E082894DF6FF731A40828100
:102A8000704770B50246002400230025002040F660
:102A90006A16B14200D100BFC1F3421501F01F0315
:102AA000012606FA03F3012D02D19689334006E090
:102AB000022D02D1168A334001E0968A33400C126F
:102AC000012606FA04F41688344013B10CB1012033
:102AD00000E0002070BDF0B503460024002600256C
:102AE000002040F66A17B94200D100BF1846C1F372
:102AF000421401F01F06012707FA06F5012C01D147
:102B00000C3004E0022C01D1103000E014301AB176
:102B100007682F43076002E00768AF430760F0BD16
:102B20002DE9F04786B005460E460024A24600BFB8
:102B3000A1460027B08900B100BF2F462C8A4CF671
:102B4000FF700440F08804432C82AC894EF6F310E9
:102B50000440B08831890843718908430443AC813B
:102B6000AC8A4FF6FF400440B0890443AC8201A810
:102B7000FFF778F91F48874202D1DDF810A001E085
:102B8000DDF80CA0A88900F4004040B10AEBCA00AF
:102B900000EB0A1031684900B0FBF1F807E00AEBDE
:102BA000CA0000EB0A1031688900B0FBF1F864201C
:102BB000B8FBF0F004012009642101FB1089A88909
:102BC00000F4004040B1322000EBC900B0FBF1F04E
:102BD00000F00700044308E0322000EB09106421F4
:102BE000B0FBF1F000F00F0004432C8106B0BDE80B
:102BF000F08700000038014001468888C0F30800D3
:102C0000704700BFFEE700002DE9F04104460A4985
:102C1000204600F0C3FC8046084900F0CDFD074681
:102C2000074900F059FC064600F07AFD85B22846B7
:102C3000FFF76EF8BDE8F081000034430000FA446D
:102C40000000FA4308B5FEF72BFCFFF7F7F9FEF793
:102C5000EBFDFEF7F1F908484023802200210090A7
:102C60000846FEF775FEFEF72FFF03E0FFF75CF85E
:102C7000FEF7ACFAFAE700009447000821F00042A2
:102C8000A2F16052B2F5801F01F0004328BFD2F1DB
:102C90007F6C0BD95FEA001C43EAC20242EB507022
:102CA00018BF704728BF20F001007047B2F5801FA1
:102CB000BCBF184670474FEA410C1CF5001F02D2FA
:102CC000084600F040BE70B500F0C8FA0000008968
:102CD000FFF7F6BF4FF00040A0F5800070470000FE
:102CE00010B591EA030F48BF83F0004300F112834F
:102CF000841A71EB030C05D2121943EB0C03001B71
:102D000061EB0C01DFF824E14FEA1154A4EB135CF2
:102D10001EEA430F18BF9EEA445F73D023EA0E03F6
:102D2000DCF1200E21EA045143F4801332D322FA5D
:102D30000CFE10EB0E0023FA0CFE41EB0E01CCF161
:102D4000200E03FA0EFE10EB0E0051F10001B1F55A
:102D5000801FCCF1200E32D201EB045112FA0EF298
:102D6000BDE8104058BF7047401C38BF5FEA4202C0
:102D700018BF7047002814BF20F0010041F1000186
:102D80004FEA410313F5001F38BF7047A1F1C0415E
:102D900000F0B2BA012A43EB0302ACF1200CDCF1E3
:102DA0001F0E32BF4FF0000E23FA0CF310EB03009E
:102DB00041EB0451B4EB115FD0D0A1EB045101F50C
:102DC000801149085FEA300001EB04510ED350F145
:102DD000000038BF12FA0EFE08D1BDE81040C9E766
:102DE000401C38BF5FEA4202CAD1C3E7BDE81040C9
:102DF0004FEA410313F5001F38BF7047A1F1C041EE
:102E000000F07ABA9EEA445F08D011EA5E0FBDE88E
:102E1000104004BF01F0004100207047BDE81040A1
:102E200070B500F01BFA00BF64FBBE3E0000E0FF7F
:102E30002DE9C04130B4DFF8A0C23CEA111418BF3C
:102E40003CEA131400F0EC8081EA03051CEA11143B
:102E500044EAD57418BF1CEA131500F0C780A4EB30
:102E600005044FF0004545EAC12145EAC32341EA84
:102E7000505143EA525304F17F74994204F50034EF
:102E80004FEAC0204FEAC22208BF904200F09C8067
:102E90004FEA13650FF24016765D4FEA134506FBC5
:102EA00005F7C7F1807706FB07F74FEAD737A7FB8F
:102EB00003687642C8F58038A7FB06CE38BFA8F174
:102EC000010807FB08E64FF0000EA6FB028CE6FBAC
:102ED00003CEDCF1000CCEF1004E38BFAEF1010E96
:102EE000A6FB0C584FF000074FF00005E6FB0E87DD
:102EF000A1FB08C6A0FB07CE16EB0E0645F10005A8
:102F0000E1FB076515F1E04E7EBFA4F580345FEA72
:102F100046066D4116F1800745F100054FEA172777
:102F20004FEA066647EA0567A6F1DE46B6F1805F1E
:102F30004FEA15251FD9384624F0010C05EBC47162
:102F4000BCF1FE6F01EB0C1102D8F0BCBDE80081B2
:102F500024425CBF01F5801E9EEAC47F02D4F0BC0F
:102F6000BDE80081244238D4F0BCA1F1C041BDE8E5
:102F7000004100F0C1B94FEAD22242EA43524FEA7F
:102F8000D323A7FB02864FEAD02040EA415007FB3B
:102F900003661EEA0E0F4FEAD12105FB026658BFF9
:102FA000A6EB0056B6EB00564FEA520E4EEAC37E31
:102FB00018EB0E0E56EB530EBDD518EB02085E4112
:102FC0007F1C55F10005B6E74FF480154FF0000760
:102FD0004FF000064FF00008ADE7F0BC4FF00000E6
:102FE00001F1C04101F00041BDE8008111EA0C1F70
:102FF0000CEA131500D00CE013EA0C1F00F025803A
:103000004FF00000F0BC81EA030101F00041BDE88F
:103010000081F0BCBDE8004181EA030100F06CB919
:10302000F0BCBDE8004170B500F018F9097EFC3E27
:1030300000F007B881EA03014FF0000001F0004101
:10304000704781EA030100F057B9F0BCBDE80041C8
:103050004FF0000021497047FFFDFBF9F7F5F4F24E
:10306000F0EEEDEBE9E8E6E4E3E1E0DEDDDBDAD823
:10307000D7D5D4D3D1D0CFCDCCCBCAC8C7C6C5C481
:10308000C2C1C0BFBEBDBCBBBAB9B8B7B6B5B4B398
:10309000B2B1B0AFAEADACABAAA9A8A8A7A6A5A483
:1030A000A3A3A2A1A09F9F9E9D9C9C9B9A99999847
:1030B0009797969595949393929191908F8F8E8EEA
:1030C0008D8C8C8B8B8A8989888887878685858477
:1030D00084838382828181800000FF070000F87F63
:1030E000B0FA80F310FA03F10AD0C3F11D0303F51F
:1030F00080634FEA41504FEA035202EBD1217047FF
:103100004FF0000070470000DFF848C170B51CEABE
:10311000111E1EBF1CEA13159EEA0C0F95EA0C0F38
:1031200000F06F8081EA030423EA4C134EEAD47E58
:1031300021EA4C1141F4801143F48013AE44A1FB09
:10314000024CA0FB0365AEF17F7E361955EB0C05F2
:10315000A1FB034C4CF10003A0FB021C16EB0C0678
:10316000654153F10003094218BF46F0010613F40C
:10317000007F0BD14FEA03314FEA0530340341EAB7
:10318000155140EA16506FF003020AE04FEAC321DE
:103190004FEAC520F40241EA555140EA56506FF01B
:1031A000020202EB2E4201EB025585EACE710AD0F3
:1031B0005FEA440C18BF24F0004450F1000041F1D4
:1031C000000120EAD47040F2FE7C624500D270BD5E
:1031D000A84214BF4FF080444FF04044002E08BF77
:1031E0000024BEF1806FA8BFA1F1C041BDE87040CE
:1031F00080F282804FF0000001F1C04101F00041F7
:1032000070479EEA0C0F0CEA131518BF95EA0C0FD5
:1032100006D04FF0000081EA030E0EF0004170BDB1
:1032200000F01CF88900013E00F007B800F009B872
:103230004FEA430C5FEA5C5C08D081EA030100F0CE
:103240005BB84FEA410C5FEA5C5CF6D14FF00000DE
:10325000014970470000FF070000F87F0EF1020EE1
:103260002EF0030E5EF8046B364205D4012A43EBC0
:10327000030515F5001F12D8012841EB010C1CF5C0
:10328000001F0CD80ED14FEAD17C15F5001F0CEBB6
:103290004C0C0CF1020C08BF4CEBD37C04E04FF05B
:1032A000080C01E04FEAD37C0CEB4C0526FA05F63E
:1032B00006F00706B6F1040C06D20EEB860CBDE84C
:1032C00070404CF0010C6047DFE80CF0090B020283
:1032D0004FF000414FF00000A1F5002170BD1946EC
:1032E0001046012851EB010418BFD4F5001484BF27
:1032F000002001F0004170BD0808A0F500114FEA60
:103300003101704710B591EA030F48BF83F00043C5
:103310003FF5EEAC841A71EB030C07D212198CF056
:10332000004C43EB0C03001B61EB0C01DFF8A4E144
:103330004FEA1154A4EB135C1EEA430F18BF9EEA38
:10334000445F00F0B08023EA6E03524221EA045148
:10335000C3EB6E0338BF5B1EDCF1200E25D322FACF
:103360000CFE10EB0E0043FA0CFE41EB0E01CCF10B
:10337000200E03FA0EFE10EB0E0051F10001CCF10D
:10338000200E29D412FA0EF201EB0451BDE81040D0
:1033900058BF7047401C1CBFB2F1004F7047002857
:1033A0000CBF491C20F00100704712EB020E43EBEA
:1033B000030218BF4FF0010E4EEA4202ACF1200C9E
:1033C000DCF11E0E54D943FA0CFE10EB0E0051F145
:1033D000FF31CCF11E0ED5D50EF1010E12FA0EFE04
:1033E000404141EB010101EB445C5FEA5C5C10D9B8
:1033F00010EBDE7001EB045138BFBEF1004FBDE8A9
:10340000104018BF704700280CBF491C20F0010075
:10341000704730D24FEAD42C11F5001124F4006427
:103420001BD0B1FA81F20B3AA41AA41ED2F12003E8
:10343000914030FA03F31943904001EBCC71002C1A
:1034400001EB0451BDE81040A8BF704701F1C04135
:103450004FF0000001F000417047B0FA80F310FA1D
:1034600003F100D110BDE41A173C4805C90AE4E78E
:1034700001EB045110BD491001EB0451BDE81040AF
:103480004FEA300002E04FF0000170474A0008BFE9
:103490000042F8D0B2F5001F28BF704701F000418C
:1034A0004FF0000070479EEA445F07D011EA5E0FBC
:1034B000BDE8104004BF002100207047BDE8104067
:1034C00070B5FFF7CBFE00BF40DFF63E83F0004152
:1034D000104670470000E0FF90EA010F48BF81F0FE
:1034E000004100F14682421A3CBF801A89184FEA17
:1034F000D0524FF07F4C1CEA410FA2EBD15318BFC2
:103500009CEA026F00F03B804FF0004C4CEA002038
:103510004CEA012121FA03FC10EB0C0C1ED202F143
:10352000FF325FEA1C2040EBC25038BF70471CF0EE
:103530007F0F4FEA400C18BFBCF17F4F38BF704778
:10354000C3F12003994008BF20F00100BCF17F4F78
:1035500038BF7047A0F1C04000F0F5B94FEA3C0019
:10356000000A40EBC25028BF1CF0FF0F4FEA400C8E
:10357000E6D018BFBCF17F4F38BF7047EAE79CEA3E
:10358000026F05D010EA5C0F08BF00F000407047E2
:1035900010B500F092F900BF64FBBE3E4FF47F0C03
:1035A0001CEAD0121EBF1CEAD11392EA0C0F93EA58
:1035B0000C0F00F0858090EA010F48BF42F4807242
:1035C00040F4000C41F400002CF07F4120F07F40DB
:1035D00000B58142A2EB03020FF2081CACEB504E87
:1035E000C0F100009EF800E04FEA4E0E00FB0EFC1A
:1035F00038BF49004FEA2C1C02F5FA020CFB0EF30F
:103600004FEACE1E4FEA112C4FEAC1210EEB635E4A
:1036100042EB22420EFB0CFC4FEA1C5300FB031151
:103620004FEA112C4FEA01310EFB0CFC4FEADC4C47
:1036300000FB0C11C14228BF09184CEB03335DF8A5
:1036400004EB10EB410143EBC250B2F57C0F38BFE5
:10365000704729D512F0F00F1CBF00F1C04000F0F8
:1036600000407047008182838485868788898B8C9F
:103670008D8E8F919293959697999A9C9D9FA0A2DB
:10368000A3A5A7A8AAACAEB0B2B3B5B7B9BCBEC02B
:10369000C2C5C7C9CCCED1D4D7D9DCDFE2E6E9ECCC
:1036A000F0F3F7FAFE0000004FEA400C0CF1807CCA
:1036B000BCF17E4F28BF7047B0F1C04000F043B965
:1036C00090EA010F0CEAD11348BF42F480726245C0
:1036D00038BF634507D213F47F0F16D080EA01008C
:1036E00000F00040704710B500F0E7F8097EFC3E9E
:1036F00000F005B880EA010000F00040704780EA61
:10370000010000F0004000F01EB912F47F0F04BF6A
:103710000248704780EA010000F015B90000C07F40
:10372000C10DD1F19E0206DB4FEA002343F00043B6
:1037300023FA02F07047004207D54FEA4001B1F189
:10374000FE4F02D24FF00000704710B500F0B5F800
:1037500049922480002070476FEA200070470000E3
:1037600010F0004148BF4042B0FA80F310FA03F273
:10377000C3F19D030BD051EAC35101EB1220530654
:1037800038BF704700F1010008BF20F0010070470A
:10379000B0FA80F310FA03F2C3F19D030AD0D90501
:1037A00001EB1220530638BF704700F1010008BF3B
:1037B00020F00100704700004FF47F0C1CEAD0128B
:1037C0001EBF1CEAD11392EA0C0F93EA0C0F00F013
:1037D000478090EA010F48BF42F480724FF0004CDE
:1037E0004CEA00204CEA012102EB0302A0FB01138A
:1037F000A2F50002002918BF43F001035B0028BFB7
:103800004FEA330342EB22425FEA132C4CEBC250E7
:103810002EBFBCEB436FB2F57C0F70474FEA036CD1
:10382000BCF1004F08BF20F00100B2F57C0F38BF9B
:1038300070470BD582F0FF0212F5803FC8BF70477A
:1038400000F1C040D8BF00F00040704700F5000C08
:103850005FEA4C0C48BF7047B0F1C04000F073B84D
:1038600090EA010F0CEAD11348BF42F4807262451E
:1038700038BF634504D280EA010000F00040704781
:1038800010B500F01AF800BF8900013E00F007B83B
:1038900000F009B85FEA410C5FEA1C6C08D080EACE
:1038A000010000F050B85FEA400C5FEA1C6CF6D1F2
:1038B0004FF00040A0F5800070470EF1020E2EF090
:1038C000030E5EF8044B244204D44FEA4102B2F1E5
:1038D0007F4F11D84FEA4003B3F17F4F0CD80ED180
:1038E0004FEAD07CB2F17F4F0CEB4C0C0CF1020C88
:1038F00008BF4CEBD17C04E04FF0080C01E04FEA2C
:10390000D17C0CEB4C0324FA03F404F00704B4F16B
:10391000040C06D20EEB840CBDE810404CF0010CF8
:103920006047DFE80CF0070802024FF00040A0F506
:10393000800010BD0846420018BFD2F1807288BFD7
:1039400000F0004010BDFF2141EAD050C005704793
:1039500080F0004090EA010F7FF5C5AD81F0004195
:1039600000F007B890EA010F48BF81F000413FF531
:10397000BAAD421A04D882F00042A0EB0200114412
:103980004FEAD0524FF07F4C1CEA410FA2EBD153CB
:1039900018BF9CEA026F4AD04FF0004C4CEA00205E
:1039A0004CEA012121FA03FCB0EB0C0C0FD412F00D
:1039B000FE0F36D05FEA4C001DD5001240EBC2501E
:1039C00038BF70471CF03F0F18BF70470BE0A2F1E3
:1039D00001025FEA1C2040EBC25038BF70471CF068
:1039E0007F0F18BF7047C3F12003994014BF401EDA
:1039F00020F00100704780084FEA122308BF70478B
:103A0000B0FA80FCA2EB0C02CCF1280C60FA0CF0AE
:103A100093EA122F04BF00EBC25070474FEAC37005
:103A20007047130A5FEADC1008BF7047F6E79CEAAC
:103A3000026F04D010EA5C0F08BF0020704710B579
:103A4000FFF73BFF40DFF63E81F00040704700008B
:103A50000000000000000000000000000000000066
:103A600000F80000000000000033300000000016E5
:103A70000E00160E0000000000000000000040C014
:103A80007840C0784000043F04043F040400007004
:103A900088FC08300000001820FF211E0000F008FC
:103AA000F000E018000000211C031E211E0000F0A1
:103AB0000888700000001E2123241927211000000F
:103AC00000160E00000000000000000000000000D2
:103AD00000E0180402000000000718204000000267
:103AE0000418E000000000402018070000004040DB
:103AF00080F0804040000202010F0102020000003D
:103B000000F0000000000101011F010101000000A0
:103B100000000000000000B0700000000000000085
:103B2000000000000000000101010101010100008E
:103B30000000000000000030300000000000000025
:103B4000000080601804006018060100000000E01A
:103B500010080810E000000F102020100F000010C7
:103B600010F8000000000020203F2020000000701E
:103B70000808088870000030282422213000003016
:103B80000888884830000018202020110E0000000E
:103B9000C02010F8000000070424243F240000F88F
:103BA0000888880808000019212020110E0000E074
:103BB000108888180000000F112020110E00003816
:103BC0000808C83808000000003F0000000000702E
:103BD000880808887000001C222121221C0000E0B7
:103BE00010080810E0000000312222110F00000030
:103BF00000C0C000000000000030300000000000E5
:103C000000C0C0000000000080B070000000000094
:103C100080402010080000010204081020004040ED
:103C20004040404040000404040404040400000830
:103C300010204080000000201008040201000070E5
:103C400048080808F0000000003036010000C030CD
:103C5000C828E810E0000718272423140B000000F0
:103C6000C038E0000000203C23020227382008F87A
:103C7000888888700000203F202020110E00C0306E
:103C8000080808083800071820202010080008F845
:103C900008080810E000203F202020100F0008F83E
:103CA0008888E8081000203F20202320180008F80A
:103CB0008888E8081000203F200003000000C03082
:103CC00008080838000007182020221E020008F803
:103CD00008000008F808203F210101213F200008CA
:103CE00008F8080800000020203F20200000000005
:103CF0000808F8080800C08080807F00000008F8ED
:103D000088C028180800203F20012638200008F825
:103D1000080000000000203F20202020300008F88C
:103D2000F800F8F80800203F003F003F200008F8A6
:103D300030C00008F808203F200007183F00E010BE
:103D400008080810E0000F10202020100F0008F8CD
:103D500008080808F000203F210101010000E010E0
:103D600008080810E0000F18242438504F0008F805
:103D7000888888887000203F2000030C3020007065
:103D80008808080838000038202121221C00180863
:103D900008F8080818000000203F2000000008F87C
:103DA00008000008F808001F202020201F000878C5
:103DB000880000C83808000007380E010000F80825
:103DC00000F80008F800033C0700073C030008184F
:103DD00068808068180820302C03032C30200838B5
:103DE000C800C83808000000203F2000000010086C
:103DF0000808C838080020382621202018000000B4
:103E000000FE020202000000007F40404000000C63
:103E100030C000000000000000010638C0000002B1
:103E20000202FE000000004040407F000000002031
:103E3000100804081020000000000000000000002E
:103E40000000000000008080808080808080000270
:103E50000408000000000000000000000000000056
:103E60008080808000000019242222223F2008F850
:103E7000008080000000003F112020110E00000093
:103E8000008080800000000E112020201100000022
:103E900000808088F800000E112020103F200000D4
:103EA000808080800000001F2222222213000080D8
:103EB00080F0888888180020203F20200000000023
:103EC000808080808000006B94949493600008F858
:103ED000008080800000203F210000203F200080E3
:103EE0009898000000000020203F202000000000E3
:103EF00000809898000000C08080807F000008F853
:103F0000000080808000203F24022D302000000827
:103F100008F8000000000020203F202000008080E2
:103F2000808080808000203F20003F20003F008074
:103F300080008080000000203F2100203F20000002
:103F4000808080800000001F202020201F008080B3
:103F500000808000000080FFA12020110E000000E2
:103F6000008080808000000E112020A0FF808080D3
:103F700080008080800020203F2120000100000080
:103F80008080808080000033242424241900008055
:103F900080E0808000000000001F20200000808062
:103FA000000000808000001F202020103F20808023
:103FB00080000080808000010E30080601008080B3
:103FC0000080008080800F300C030C300F000080D8
:103FD0008000808080000020312E0E312000808003
:103FE00080000080808080818E7018060100008033
:103FF0008080808080000021302C22213000000051
:104000000000807C020200000000003F40400000F1
:104010000000FF00000000000000FF0000000002A0
:10402000027C800000000040403F00000000008053
:1040300040408000008000000000000101000000FE
:10404000000000000000002F000000000700070033
:1040500000147F147F1400242A7F2A1200231308DF
:10406000646200364955225000000007000000003D
:104070001C224100000041221C000014083E0814CC
:104080000008083E0808000000A0600000080808BA
:104090000808000060600000002010080402003ED4
:1040A0005149453E0000427F40000042615149466F
:1040B000002141454B31001814127F10002745455F
:1040C0004539003C4A494930000171090503003671
:1040D0004949493600064949291E00003636000084
:1040E0000000563600000008142241000014141489
:1040F0001414000041221408000201510906003E78
:104100004955592E007C1211127C007F49494936CD
:10411000003E41414122007F4141221C007F49492C
:104120004941007F09090901003E4149497A007F60
:104130000808087F0000417F4100002040413F0106
:10414000007F08142241007F40404040007F020C65
:10415000027F007F0408107F003E4141413E007F06
:1041600009090906003E4151215E007F09192946CF
:104170000046494949310001017F0101003F4040AB
:10418000403F001F2040201F003F4038403F006359
:10419000140814630007087008070061514945437B
:1041A00000007F414100000204081020000041414E
:1041B0007F00000402010204004040404040000033
:1041C00001020400002054545478007F48444438CD
:1041D00000384444442000384444487F0038545454
:1041E000541800087E0901020018A4A4A47C007FD2
:1041F000080404780000447D4000004080847D0075
:10420000007F102844000000417F4000007C04181B
:104210000478007C0804047800384444443800FCE6
:10422000242424180018242418FC007C0804040802
:1042300000485454542000043F444020003C404077
:10424000207C001C2040201C003C4030403C0044AE
:1042500028102844001CA0A0A07C004464544C44B6
:104260000000087F41000000007F00000000417F47
:104270000800000804081008EFBC8C0000000000D3
:10428000000000000000000000000000000058389E
:10429000000000000000000000000000E380820039
:1042A000000000000000000000000000000000000E
:1042B0000000182424180000000000000000000086
:1042C000E4BDA000008060F8074020180F08C8086F
:1042D00008281800010000FF00100C0340807F0038
:1042E00001061800E5A5BD001010F01F10F00080B9
:1042F0008282E2928A8680004022150816610000C0
:1043000040807F0000000000E4B89600202020FEDE
:104310002020FF202020FF20202020000000007F00
:10432000404047444444474040400000E7958C00EB
:10433000000000FE929292FE929292FE0000000017
:1043400008080484621E010001FE0204040808003B
:1043500000000000FF01010131090909098971010B
:10436000010101FFFF8080808080809681808080B5
:10437000808080FFFF01818181FD8991A1C1FD8144
:10438000818101FFFF808080809F888482819F805F
:10439000808080FF0000000000000000000000009E
:1043A000000000000000000000000000000000000D
:1043B00000000000000000000000000000000000FD
:1043C00000000000000000000000000000000000ED
:1043D00000000000000000000000000000000000DD
:1043E00000000000000000000000000000000000CD
:1043F00000000000000000000000000000000000BD
:1044000000000000000000000000000000000000AC
:10441000000000000000000000000000000000009C
:10442000000000000000000000000000000000008C
:10443000000000000000000000000000000000007C
:10444000000000000000000000000000000000006C
:10445000000000000000000000000000000000005C
:10446000000000000000000000000000000000004C
:10447000000000000000000000000000000000003C
:10448000000000000000000000000000000000002C
:10449000000000000000000000000000000000001C
:1044A000000000000000000000000000000000000C
:1044B00000000000000000000000000000000000FC
:1044C000000080808080808080000000000000006C
:1044D00000000000000000000000000000000000DC
:1044E00000000000000000000000000000000000CC
:1044F00000000000000000000000000000000000BC
:1045000000000000000000000000000000000000AB
:10451000000000000000000000000000000000009B
:10452000000000000000000000000000000000008B
:104530000000000000000000000086C6C6C7C7E3F8
:10454000E3E3E3E3E1E1E3E7C7C787060000000038
:10455000000000000000000000000000000000005B
:1045600000000010181C1C1E0E0607878383870797
:10457000070706060E1E1C1C1C1800000000000089
:10458000000000000000000000000000000000002B
:10459000000000000000000000000000000000001B
:1045A000000000000000000000000000000000000B
:1045B0000000000000000000000F0F1F1F3F3F38E9
:1045C0003830303038383D3F1F1F1F0F00000000CB
:1045D00000000000000000000000000000000000DB
:1045E000000000083C7E7EFEFFEFC7C3C3C3C3C309
:1045F000E7FFFFFF7E7E3C18000000000000000087
:1046000000000000000000000000000000000000AA
:10461000000000000000000000000000000000009A
:10462000103838387C7C7C7C7C7C6C6C6C6C6C6C62
:104630006C6C6C6C7C7C7C7838383000000000003E
:1046400000000000000000C0C0C0C0C000000000AA
:104650000000008080808000000000000000C0C0DA
:10466000C0C0800000000000000001010101010144
:1046700000008080C0C0C0C0C0C0C0C0C0C0C0C03A
:10468000C0C0C0808080000000000000000000006A
:10469000000000000000000000000000000000001A
:1046A000000000000000000000000000000000000A
:1046B00000000000000000000000000000000000FA
:1046C00000000000000000070F1F1F1F1C18181813
:1046D000181C1F0F0F1F1F3E383838383838393F25
:1046E0001F1F0F0F0400000000000000000000006A
:1046F0000307070707070706060E0E0E0E0E0E0E1F
:104700000E0F0F0707070303000000000000000062
:104710000000000000000000000000000000000099
:104720000000000000000000000000000000000089
:104730000000000000000000000000000000000079
:104740000000000000000000000000000000000069
:104750000000000000000000000000000000000059
:104760000000000000000000000000000000000049
:104770000000000000000000000000000000000039
:104780000000000000000000000000000000000029
:104790000000000000000000000000000000000019
:1047A0000000000000000000000000000000000009
:1047B00000000000000000000000000000000000F9
:1047C00000000000000000000000000000000000E9
:1047D00000000000000000000000000000000000D9
:1047E00000000000000000000000000000000000C9
:1047F00000000000000000000000000000000000B9
:1048000000000000000000000000000000000000A8
:104810000000000000000000000000000000000098
:104820000000000000000000000000000000000088
:104830000080C0E0F0F8F8FCFCFCFCFCFCF8F0F0B8
:10484000E080000000000000000000000000000008
:104850000000000000000000000000000000000058
:10486000000000000080C0E0F0F8F8FCFCFCFCFC5C
:10487000F8F8F0F0E0800000000000000000000008
:104880000000000000000000000000000000000028
:104890000000000000000000000000000000000018
:1048A0000000000000000000000000000000C0F850
:1048B000FEFFFFFFFFFFFFFFFFFFFFFFFFFFFFFF09
:1048C000FFFFFFFCF080000000000000000000007F
:1048D00000000000000000000000000000000000D8
:1048E0000000C0F8FEFFFFFFFFFFFFFFFFFFFFFF1D
:1048F000FFFFFFFFFFFFFFFCF08000000000000053
:1049000000000000000000000000000000000000A7
:104910000000000000000000000000000000000097
:1049200000000000000000000000000000FCFFFF8D
:10493000FFFFFFFFFFFFFFFFFFFFFFFFFFFFFFFF87
:10494000FFFFFFFFFFFF000000000000000000006D
:104950000000000000000000000000000000000057
:1049600000FCFFFFFFFFFFFFFFFFFFFFFFFFFFFF59
:10497000FFFFFFFFFFFFFFFFFFFF00000000000041
:104980000000000000000000000000000000000027
:104990000000000000000000000000000000000017
:1049A000000000000000000000000000003FFFFFCA
:1049B000FFFFFFFFFFFFFFFFFFFFFFFFFFFFFFFF07
:1049C000FFFFFFFFFFFF00000000000000000000ED
:1049D00000000000000000000000000000000000D7
:1049E000003FFFFFFFFFFFFFFFFFFFFFFFFFFFFF96
:1049F000FFFFFFFFFFFFFFFFFFFF000000000000C1
:104A000000000000000000000000000000000000A6
:104A10000000000000000000000000000000000096
:104A20000000000000000000000000000000031F64
:104A30007FFFFFFFFFFFFFFFFFFFFFFFFFFFFFFF06
:104A4000FFFFFF3F0F01000000000000000000001A
:104A50000000000000000000000000000000000056
:104A60000000031F7FFFFFFFFFFFFFFFFFFFFFFFB0
:104A7000FFFFFFFFFFFFFF3F0F01000000000000EE
:104A80000000000000000000000000000000000026
:104A90000000000000000000000000000000000016
:104AA0000000000000000000000000000000000006
:104AB000000103070F1F1F3F3F3F3F3F3F1F1F0FD7
:104AC00007030000000000000000000000000000DC
:104AD00000000000000000000000000000000000D6
:104AE00000000000000103070F1F1F3F3F3F3F3F33
:104AF0003F1F1F0F07030000000000000000000020
:104B000000000000000000000000000000000000A5
:104B10000000000000000000000000000000000095
:104B20000000000000000000000000000000000085
:104B30000000000000000000000000000000000075
:104B40000000000000000000000000000000000065
:104B50000000000000000000000000000000000055
:104B60000000000000000000000000000000000045
:104B70000000000000000000000000000000000035
:104B80000000000000000000000000000000000025
:104B90000000000000000000000000000000000015
:104BA0000000000000000000000000000000000005
:104BB00000000000000000000000000000000000F5
:104BC00000000000000000000000000000000000E5
:104BD00000000000000000000000000000000000D5
:104BE00000000000000000000000000000000000C5
:104BF00000000000000000000000000000000000B5
:104C000000000000000000000000000000000000A4
:104C10000000000000000000000000003070F0F014
:104C2000F0E0E0E0C0C080808000000000000000F4
:104C30000000000000000000000000000000000074
:104C40000000000000000000000000000000000064
:104C50000000000000000000000000000000000054
:104C60000000000000000000000000000000000044
:104C700000000000000000000000000000808080B4
:104C8000C0C0E0E0F0F070787878300000000000FC
:104C90000000000000000000000000000000000014
:104CA000000001010303030707070F0E1E1E1C3C33
:104CB0003C787878F0F0E0E0E0C0C0C08080000090
:104CC00000000000000000000000000000000000E4
:104CD00000000000000000000000000000000000D4
:104CE00000000000000000000000000000C0E0E044
:104CF000F0F0F0F8F8F83C1C1E1E0F0F070707072E
:104D0000030101010100000000000000000000009C
:104D10000000000000000000000000000000000093
:104D20008080C0C0C0C0E0E0E0E0F070707878380B
:104D3000383C3C1C1C1E1F1F0F0F0F0F07070300E2
:104D40000000000000000000000000000000000063
:104D50000000000000000000000000000000000053
:104D6000000000000000000000000000000001033F
:104D700003030707070F0F0F0F1E1E1E3C3C3C7856
:104D80007878F0F0F0E0E0E0E0C0800000000000A3
:104D90000000000000000000000000000000808112
:104DA000030303F36101010180E03000000080C0D3
:104DB000C000000000000000000000000000000033
:104DC0000000000000000000103878F8F8F878388B
:104DD0003838383838383838383838383878F8F893
:104DE00078383000000000000000000000000000E3
:104DF00000000000000000C0E0000080F030000073
:104E00000080F07000000101E1C10000000000001E
:104E100000000000000000000000000000070F017B
:104E200000103F0F0000007C1F030000603C0F03D8
:104E30000000000000000000000000000000000072
:104E40000000000000000000000000000F3FFCF028
:104E5000C0C0C0C0C0C0C0C0C0C0C0C0E0FC7F0FE8
:104E60000000000000000000000000000000000042
:104E700000000000000000070300003F07000000E2
:104E80003C1F000000103C1F01000000000000005B
:104E90000000000000000000000000000000000012
:104EA0000000000000000000000000000000000002
:104EB00000000000000000000000000000000000F2
:104EC00000000000000000000000000000000000E2
:104ED00000000000000000000000000000000000D2
:104EE00000000000000000000000000000000000C2
:104EF00000000000000000000000000000000000B2
:104F000000000000000000000000000000000000A1
:104F10000000000000000000000000000000000091
:104F20000000000000000000000000000000000081
:104F30000000000000000000000000000000000071
:104F40000000000000000000000000000000000061
:104F50000000000000000000000000000000000051
:104F60000000000000000000000000000000000041
:104F70000000000000000000000000000000000031
:104F80000000000000000000000000000000000021
:104F90000000000000000000000000000000000011
:104FA0000000000000000000000000000000000001
:104FB00000000000000000000000000000000000F1
:104FC00000000000000000000000000000000000E1
:104FD00000000000000000000000000000000000D1
:104FE00000000000000000000000000000000000C1
:104FF00000000000000000000000000000000000B1
:1050000000000000000000000000000000000000A0
:105010000000000000000000000000C0F838383038
:1050200060E0C08000000000000000000000000000
:105030000000000000000000000000000000000070
:105040000000000000000000000000000000000060
:105050000000000000000000000000000000000050
:105060000000000000000000000000000000000040
:105070000000000000000000000000000000000030
:10508000000080C0E07030387CF08000000000003C
:1050900000000000000000000000FCFF870000008E
:1050A00000000103070E0C183870E0C080000000FB
:1050B00000000000000000000000000000000000F0
:1050C00000000000000000000000000000000000E0
:1050D00000000000000000000000000000000000D0
:1050E00000000000000000000000000000000000C0
:1050F00000000000000000000080C0E070381C0EBE
:10510000060703010000000000FFFF300000000060
:105110000000000000000000000000071F3C70E0DD
:10512000C080800000000000000000010103070EA5
:105130001C387060C0C0800000000000000000004B
:10514000000000000000000000000000000000005F
:105150000000000080C0C00000000000000000004F
:1051600000000000000000000000000000000080BF
:10517000C0E06030381C0E07030100000000000092
:1051800000008080C0C060381C0F030000000000D9
:10519000000000000000000000000000000000000F
:1051A0000001018303070606068C8C0C0C0C1818F2
:1051B0001818181818191B1F1E1C181000000000C2
:1051C000000000000000000000FEFE0E1C387060B1
:1051D00070180E0703010103061C3830381C0EFF3F
:1051E000FF00000000000000000018181C1E1F1B1C
:1051F000191818181898980C0C0C0C0C8C0606062C
:10520000070303810100000000000000000000000F
:10521000000000000000000000000000000000008E
:1052200000101E070000C0701C030000000000F00A
:105230003E00000000000000000000000000000030
:10524000000000000000000000FFFF8000000000E0
:10525000000000000000000000000000000080FFCF
:10526000FF0000000000000000000000000000003F
:10527000000000180E0300000000380F01000000BD
:1052800000003F03000000000000000000000000DC
:10529000000000000000000000000000000000000E
:1052A00000000000000000000000000000000000FE
:1052B00000000000000000000000000000000000EE
:1052C00000000000000000000000030303030303CC
:1052D000030303030303030303030303030303039E
:1052E00001000000000000000000000000000000BD
:1052F00000000000000000000000000000000000AE
:10530000000000000000000000000000000000009D
:10531000000000000000000000000000000000008D
:10532000000000000000000000000000000000007D
:10533000000000000000000000000000000000006D
:10534000000000000000000000000000000000005D
:10535000000000000000000000000000000000004D
:10536000000000000000000000000000000000003D
:10537000000000000000000000000000000000002D
:10538000000000000000000000000000000000001D
:10539000000000000000000000000000000000000D
:1053A00000000000000000000000000000000000FD
:1053B00000000000000000000000000000000000ED
:1053C00000000000000000000000000000000000DD
:1053D00000000000000000000000000000000000CD
:1053E00000000000000000000000000000000000BD
:1053F00000000000000000000000000000000000AD
:10540000000000000000000000000000000000009C
:10541000000000000000000000000000000000008C
:10542000000000000000000000000000000000007C
:10543000000000000000000000000000000000006C
:10544000000000000000000000000000000000005C
:10545000000000000000000000000000000000004C
:10546000000000000000000000000000000000003C
:10547000000000000000000000000000000000002C
:10548000000000000000000000000000000000001C
:105490000000000000000000000000808080C0C00C
:1054A000C0C0C0C0C0C0C0C0C0C0C0C0E0E0E0E07C
:1054B000E0E0E0E0E0E0E0E0E0E0F0F0F0F020004C
:1054C00000000000000000000000000000000000DC
:1054D00000000000000000000000000000000000CC
:1054E00000000000000008181858F8F8F8F8F8F85C
:1054F000F8F8F8F8F8F8F8F8F8F8F8F8F8F8F8F82C
:10550000F8F8F0F0F0F0F0F0F0F0F0F0F0F0F0007B
:1055100000000000000000000080F3F3FBFBFBFB39
:10552000FBFFFFFFFFFFFFFFFFFFFFFFFFFFFFFF8F
:105530007D7D7D3D3D3D3D3D3D1D1F1F1F1F1E0EC1
:105540000E0C0C0000000000000000000000000035
:10555000000000000000000000000000000000004B
:1055600000000000000000003C7EFFFFFFFFFFFF87
:10557000FFFFFFFFFFFFFFFFFFFFFFFFFFFFFFFF3B
:10558000FFFDFDF9F9F9F9F9F9F9F1F1F1703000E0
:10559000000000000000000000010100113F3F3F3B
:1055A0001F1F1F1F1F1F1F1F0F0F0F0F0F0F0F0F8B
:1055B0000F0F07070707070707070707030303037B
:1055C00003000000000080808080808080808080D8
:1055D00080808080808080808080808080808080CB
:1055E00080800000000000000000000000000000BB
:1055F00000000000000000000000000000000000AB
:10560000000000000000000000000000000000009A
:10561000000000000000000000000000000000008A
:10562000000000000000000000000000000000007A
:10563000000000000000000000000000000000006A
:10564000000000000000FFFF01000000000000005B
:10565000000000000000000000000000000000004A
:1056600081FFFF00000000000000000000000000BB
:10567000000000000000000000000000000000002A
:10568000000000000000000000000000000000001A
:10569000000000000000000000000000000000000A
:1056A00000000000000000000000000000000000FA
:1056B00000000000000000000000000000000000EA
:1056C00000000000000001010101010101010101D0
:1056D00001010101010101010101FFFF00000003BF
:1056E000FF010000000000000000000000000000BA
:1056F00000000000000000000000000000000000AA
:105700000000000000000000000000000000000099
:105710000000000000000000000000000000000089
:105720000000000000000000000000000000000079
:105730000000000000000000000000000000000069
:105740000000000000000000000000000000000059
:105750000000000000000000000000030306020338
:105760000100000000000000000000000000000038
:105770000000000000000000000000000000000029
:105780000000000000000000000000000000000019
:105790000000000000000000000000000000000009
:1057A00000000000000000000000000000000000F9
:1057B00000000000000000000000000000000000E9
:1057C00000000000000000000000000000000000D9
:1057D00000000000000000000000000000000000C9
:1057E00000000000000000000000000000000000B9
:1057F00000000000000000000000000000000000A9
:105800000000000000000000000000000000000098
:105810000000000000000000000000000000000088
:105820000000000000000000000000000000000078
:105830000000000000000000000000000000000068
:105840000000000000000000000000000000000058
:105850000000000000000000000000000000000048
:105860000000000000000000000000000000000038
:105870000000000000000000000000000000000028
:105880000000000000000000000000000000000018
:105890000000000000000000000000C0E0F0F8F888
:1058A000FC7C3E3E1E1F1F1F1F1E3E3E7CFCF8F868
:1058B000F0E0800000000000000000000000000098
:1058C00000000000000000000000000000000000D8
:1058D00000C0000000000000808000000000000008
:1058E0000000000000800000000000000000000038
:1058F00000000000000080E0F0F8F8FC7C3E3E1E56
:105900001F1F1E1E1E3E3E7CFCF8F8F0E0800000CB
:10591000000000000000000000F8FFFFFFFF07018B
:10592000000000000000000000000000000001076F
:10593000FFFFFFFFF000000000000000000000007B
:105940000060301C0603C0E0380E0700C0E0380ECF
:1059500007010000E0701C07030060701C070300D3
:105960000060380E070130380E0300000000000010
:1059700000000000F8FFFFFFFF030100000000002F
:105980000000000000000000000107FFFFFFFFF023
:10599000000000000000000000010F3F7FFFFCF846
:1059A000F0E0C0C0808080808080C0C0E0F0F8FE61
:1059B000FF7F1F0F0000000000000000000000003B
:1059C00000000000000000000000000000000000D7
:1059D00000000000000000000000000000000000C7
:1059E00000000000000000000000000000000000B7
:1059F00000000000010F3F7FFFFCF8F0E0C0C08016
:105A00008080808080C0C0E0F0F8FEFF7F3F0F0103
:105A10000000000000000000000000000000010382
:105A200003070707070F0F0F0F0F070707030101F2
:105A30000000000000000000000000000000000066
:105A40000000000000007FFC80000000000000005B
:105A5000000000E0FFFE80000000000000000000E9
:105A60000080FE7E0000000000000000000000003A
:105A70000000000000000000000103030707070703
:105A80000F0F0F0F070707070301010000000000B9
:105A90000000000000000000000000000000000006
:105AA00000000000000000000000000000000000F6
:105AB00000000000000000000000000000000000E6
:105AC00000000000000000010303060606060606AB
:105AD000060603010101030706060606060606067A
